:020000000C945E
:1000020047010C9459020C949F010C9400000C942B
:1000120000000C9400000C9400000C9400000C945E
:1000220000000C9400000C9400000C9400000C944E
:1000320000000C9400000C9400000C9400000C943E
:1000420000000C9400000C940A020C9400000C9422
:1000520000001027E80364000A00010000100001FC
:100062001000010050726F660000313131003230F1
:10007200330041686D656400313236003132390037
:10008200416D720000003132380033323500416474
:10009200656C000031333000343236004F6D6572CA
:1000A20000003133320030373900456E74657220FA
:1000B200796F75722049443A00456E746572206FFB
:1000C2006C642050433A00456E746572206E657709
:1000D2002050433A0052652D656E746572206E653C
:1000E200772050433A004E65772050432073746F57
:1000F200726564004E6577205043206D69736D61AF
:100102007463682C20436F6E746163742061646D44
:10011200696E0057726F6E67206F6C642050432CBB
:10012200202020436F6E746163742061646D696E78
:100132000057726F6E6720494400456E74657220E5
:10014200796F75722049443A2000456E74657220B9
:10015200796F75722050433A200057656C636F6D5A
:10016200652C2000536F7272792077726F6E672050
:1001720050430050726F6600456E74657220416490
:100182006D696E2050433A2000456E7465722053AB
:10019200747564656E742049443A2000456E746536
:1001A200722073747564656E742773206E65772090
:1001B20050433A200053747564656E742050432096
:1001C20069732073746F72656400456E7465722082
:1001D200796F7572206E65772050433A2000596F0F
:1001E20075722050432069732073746F72656400C6
:1001F200436F6E746163742041646D696E0080C0E8
:100202004500BD0266000F006001AC000E006F01E8
:10021200BB000E007D01C90011008B01D7000E004A
:100222009C01E8001F00AA01F6001E00C901150189
:100232000900E70133011000F0013C011000000247
:100242004C010A0010025C010F001A02660109004B
:1002520029023301050032027501110037027A01C9
:10026200130048028B0119005B029E011500740203
:10027200B70114008902CC0112009D02E0010E00B8
:10028200AF02F2010200030300020000F894EE271D
:10029200ECBBF1E0FBBFEBBFE5BF8DE0A2E0BB270B
:1002A200ED938A95E9F780E094E0A0E6ED9301975B
:1002B200E9F7E2E0F2E085919591009761F0A5916E
:1002C200B59105901590BF01F00105900D9201972F
:1002D200E1F7FB01F0CFEFE5EDBFE4E0EEBFC0E6F2
:1002E200D1E00C947401E7E0E4BBE8EFE5BBA0E1E8
:1002F200E3D2B898C09A8F9A979A24D2BA98C29A9F
:10030200E4B7E064E4BF8A98929AE5B7E260E5BF99
:10031200E5B7EE7FE5BFE5B7E860E5BFE5B7EB7FA0
:10032200E5BF8B98939A7894EBB7E068EBBFEBB795
:10033200E062EBBFEBB7E064EBBFFFCFFCD26D979F
:1003420008D38ED2E0E6F1E00AD3DE015E9625D232
:10035200309709F45BC0259740E050E04530E0E07B
:100362005E070CF049C004D3FE017D9606D3FE0160
:100372007B96FA93EA93DE019596C9D2E030C1F5F5
:1003820001D3FE01B196F9D2EFE6F1E0E8D2FFD255
:1003920061F1FE017F96FFD219F5EDE7F1E0DFD2C0
:1003A200DE015096FAD15CD2EBE8F1E0D8D2DE0160
:1003B2001B96F3D1F7D2DE011D96A9D2E03051F49B
:1003C2001A930A93DE01529687D1ECE9F1E0EFD25B
:1003D200B89A05C0EAEAF1E0EAD204D203D205C033
:1003E200E9ECF1E0E4D2FED1FDD121E030E004C03D
:1003F200E3D24F5F5F4FB2CF022E032A29F4E7EE1A
:10040200F1E0D5D2EFD1EED1DCD2259618D3A39666
:10041200EAC091D262979DD2E0EFF1E0A0D2DE0174
:100422005496BBD13097C1F1249740E050E045305B
:10043200E0E05E0784F51A930A93FE013C96C6D269
:1004420097D2FE01729699D2ADD2DE015A965FD250
:10045200E030E9F497D2FE0176968FD2E0E0F2E046
:100462007ED295D289F0FE01749695D249F4F8D1E4
:10047200A0E1B2E012D2DE011A960FD2B89A04C0FD
:10048200EAE1F2E094D2AED121E030E004C094D2AD
:100492004F5F5F4FCCCF2496022E032A29F4E9E264
:1004A200F2E085D29FD19ED18CD2C9D268969BC0F0
:1004B20042D2AA974ED240E050E0E0E0EE83EF83D2
:1004C200AE81BF8115971CF53A932A93FE013A96A5
:1004D2007DD2FE013896FA93EA93A2E3B2E017D2F4
:1004E200E03069F478D2FE01709647D22C5F3F4F1C
:1004F2003A932A93FE01749640D2890108C02C5F78
:100502003F4FEE81FF813196EE83FF83D9CF20E00A
:1005120030E0E7E3F2E023D2DE019C963ED1309751
:1005220009F44FC0FE017296FA93EA93DE019E9699
:10053200EED1E03009F045C0E8E4F2E038D2DE0165
:1005420098962BD13097E9F12297E0E0E883E9838E
:10055200A881B9811597A4F53ED2FE01B0960DD2BD
:100562002C5F3F4FFE017E96FA93EA9339D279F4DB
:10057200EBE5F2E01CD239D249F03A932A93DE013C
:100582009896AAD0E4E7F2E035D21AC011C00AD296
:1005920027D271F4E9E8F2E0E2D127D249F01A93C6
:1005A2000A93DE01989698D0EDE9F2E023D208C0D2
:1005B2002C5F3F4FE881F9813196E883F983C8CFF8
:1005C2002296042E052A49F4EFEAF2E0FA93EA931E
:1005D200A8EBBBE0D9D006D105D1A8E8B3E136D269
:1005E2003FD12DD2E096E991EFBFF991E991B9910E
:1005F200A9919991899179916991F99019900990AC
:100602001895A898A99AAA9AE3B3E63F21F49B9B6E
:10061200FECFE1E00895EE3E21F49C9BFECFE4E0A4
:100622000895EE3D21F49D9BFECFE7E00895EE3B59
:1006320021F49E9BFECFEAE20895A89AA998AA9A6D
:10064200E3B3E53F21F49B9BFECFE2E00895ED3E4C
:1006520021F49C9BFECFE5E00895ED3D21F49D9BA6
:10066200FECFE8E00895ED3B21F49E9BFECFE0E053
:100672000895A89AA99AAA98E3B3E33F21F49B9B11
:10068200FECFE3E00895EB3E21F49C9BFECFE6E033
:100692000895EB3D21F49D9BFECFE9E00895EB3BED
:1006A20021F49E9BFECFEBE00895ABCF1A930A9301
:1006B2008D01E199FECF1FBB0EBBE09AEDB38FC057
:1006C200B9D11A2F2C813D81E199FECF3FBB2EBBC0
:1006D2001DBBE29AE19A5EC095D1D801EC91E0305F
:1006E20051F0F9012F5F3F4FFA93EA930F5F1F4FCB
:1006F200AC91E6DFF2CF3A932A93A0E0E1DF4AC061
:1007020097D19D014E815F8100E010E0021713072F
:10071200B0F4F801E40FF51FFF93EF93A885B985B4
:10072200A00FB11FC3DFAF91BF91EC93F801E40FAB
:10073200F51FE081E03019F00F5F1F4FE7CF7FD147
:100742002A96089577D100E010E020E030E02530CD
:10075200E0E03E07C4F41A930A9359D1E354FD4FE3
:10076200DF01BADF05D153D1ED53FD4FDF01B4DF15
:1007720009D14DD1E953FD4FDF01AEDF0C5F1F4FB1
:100782002F5F3F4FE4CF95C03DD16AD0D90185D0CC
:10079200D8015CD156D1269608951A930A938D01F9
:1007A20030DFE05DD801EC93AC9164D02ADFE05DEC
:1007B200D8011196EC93F801A1815CD022DFE05DB3
:1007C200D8011296EC93F801A28154D0F801339625
:1007D200A0E0A083A8EEB3E039D1E1E0F0E0099116
:1007E20019910895979AA4EFB1E030D19798A4EFA8
:1007F200B1E02CD1979A08951A931A2FEBB3EF70A8
:10080200AE2FE12FE07FEA2BEBBB8DE08A95F1F76B
:10081200DA9A8DE08A95F1F7DA988DE08A95F1F708
:1008220074C0AA93A881E8DFE881E295E883A881F1
:10083200E3DF85E88A95F1F7219608951A930A93E2
:100842001A2F0A81E12FF0E0ED5FFC4FE081E00F0B
:10085200AE2FE7DF502E412E19810881239608958D
:10086200A2E0DBD0ACE0DDDFA1E0D7D0E0E04E2EAD
:100872005E2E08951A931A2F1A3011F0571438F079
:10088200E0E0EA934394A42DD9DF1A30F1F15394B6
:10089200D89AA12FC6DFD89838C0CCD09D01D901F3
:1008A2002F5F3F4FEC911E2FE03019F0A12FE2DFB6
:1008B200F6CFC7D0249608951A931A2FEAB3E06FA1
:1008C200EABBD29AD09AD19ADA98D898D998712E4E
:1008D200E12FE058E0930503E12FE054E093060393
:1008E200A4E1B0E0B3D09DD09CD09BD0A0E284DF45
:1008F20088EC90E00197F1F7A8E293DFA4E091DFA2
:10090200A5E88FDFA6E08DDFABDF19910895BA93DA
:10091200AA93E991F991A991B9916D917191671792
:1009220021F46623D1F7EE270895671BE1F3E1E096
:1009320008F4E25008950A921A92FA926A937A930C
:100942008A939A93AA93BA93EA93FA93EFB7EA93A4
:1009520008956ED000E010E020E030E00895FA93B0
:10096200EA93A8EEB3E010DFE0E0EA93A1E066CFFD
:100972000A5F1F4F1A930A930895FA93EA93A4E029
:10098200B0E0BECE0C5F1F4F1A930A930895DE01AA
:1009920004DF30970895FA93EA93DE011296B7DFE7
:1009A200E0300895FE017096FA93EA930895FA935F
:1009B200EA93A8EEB3E0E8CE0C5F1F4F0C5F1F4F27
:1009C2000895A8E8B3E142D0B8984ACFFA93EA93DF
:1009D200A6E0B0E095CE2A5F3F4F3A932A9308955E
:1009E200DE019C9694DFE0300895DE019696D5DE16
:1009F20030970895FA93EA93A8EBBBE0C5DE41E095
:100A020050E0089517D08D012C813D810895AEE00C
:100A1200A29FF001A39FF00D089503DFA3E0B0E0D1
:100A220015C0A0E3E9DE88EC90E00197F1F70895A4
:100A32005A934A933A932A931A930A9308955D819B
:100A42004C813B812A81198108810895109639F0E1
:100A5200A89580ED97E00197F1F71197C9F70895EE
:00000001FF
