:060000000C94EC000C94CE
:1000060096010C9400000C9400000C9400000C94D3
:1000160000000C9400000C9400000C9400000C945A
:1000260000000C9400000C9400000C9400000C944A
:1000360000000C9400000C9400000C9400000C943A
:1000460000000C9437010C9400000C94000010275B
:10005600E80364000A00010000100001100001001E
:1000660050726F6600003131310032303300416822
:100076006D6564003132360031323900416D7200EF
:10008600000031323800333235004164656C0000BF
:1000960031333000343236004F6D65720000313333
:1000A600320030373900456E74657220796F75728B
:1000B6002049443A2000456E74657220796F757246
:1000C6002050433A200057656C636F6D652C200005
:1000D600536F7272792077726F6E672050430057A4
:1000E600726F6E672049440050726F6600456E74E9
:1000F60065722041646D696E2050433A2000456E5A
:100106007465722053747564656E742049443A2090
:1001160000456E7465722073747564656E7427731A
:10012600206E65772050433A200053747564656EDF
:10013600742050432069732073746F7265640045A0
:100146006E74657220796F7572206E6577205043E4
:100156003A2000596F7572205043206973207374DA
:100166006F72656400436F6E746163742041646DE1
:10017600696E000080C045002D0266001000600117
:10018600AC0010007001BC000A008001CC000F001A
:100196008A01D60009009901E5000500A201EE00DA
:1001A6001100A701F3001300B80104011900CB01E7
:1001B60017011500E40130011400F9014501120090
:1001C6000D0259010E001F026B01020073027A0133
:1001D6000000F894EE27ECBBF1E0FBBFEBBFE5BFF8
:1001E6008DE0A2E0BB27ED938A95E9F780E094E0E5
:1001F600A0E6ED930197E9F7ECE7F1E0859195919B
:10020600009761F0A591B59105901590BF01F00199
:1002160005900D920197E1F7FB01F0CFEFE5EDBFF9
:10022600E4E0EEBFC0E6D1E00C941901E7E0E4BBE0
:10023600E8EFE5BBA0E179D2B898C09A8F9A979A71
:10024600BAD1C29AE4B7E064E4BF929AE5B7E26035
:10025600E5BFE5B7EE7FE5BF7894EBB7E062EBBFAD
:10026600EBB7E064EBBFFFCF9FD26297ABD2E0E67D
:10027600F1E0AED2DE015496C9D1309709F443C0FD
:10028600249740E050E04530E0E05E07DCF51A9345
:100296000A93FE013C96A1D2A5D2A9D2A4E0B0E071
:1002A60068D1AAD2DE015A966BD2E03021F5A9D2E6
:1002B600FE017696ABD2E0E7F1E08AD2DE01A6D166
:1002C6003097B1F0FE017496FA93EA93DE01129626
:1002D60057D2E03049F4FDD1A0E8B1E017D2DE01F3
:1002E6001A9614D2B89A04C0EAE8F1E071D2B3D1F2
:1002F60021E030E007C00C5F1F4F0C5F1F4F4F5FC0
:100306005F4FC1CF2496022E032A29F4E9E9F1E0D2
:100316005FD2A1D1A0D1A8E8B3E1B8D2B898D9D11B
:10032600AED2689699C040D2AA974CD240E050E02F
:10033600E0E0EE83EF83AE81BF81159724F53A9313
:100346002A93FE013A9649D2FE013896FA93EA9329
:10035600A2EAB1E015D2E03071F45DD24DD2A4E04C
:10036600B0E007D12C5F3F4F3A932A93FE01749673
:100376004DD2890108C02C5F3F4FEE81FF81319637
:10038600EE83FF83D8CF20E030E0E7EAF1E020D229
:10039600DE019C963BD1309709F44CC028D2DE0191
:1003A6009E96EED1E03009F045C0E8EBF1E010D2C0
:1003B600DE0198962BD13097E9F12297E0E0E883A9
:1003C600E983A881B9811597A4F525D2FE01B096D7
:1003D6001DD22C5F3F4FFE017E96FA93EA9320D200
:1003E60079F4EBECF1E0F4D120D249F03A932A9378
:1003F600DE019896AAD0E4EEF1E01CD21AC011C034
:10040600FBD10ED271F4E9EFF1E0E2D10ED249F060
:100416001A930A93DE01989698D0EDE0F2E00AD29C
:1004260008C02C5F3F4FE881F9813196E883F98354
:10043600C8CF2296042E052A49F4EFE1F2E0FA939A
:10044600EA93A8EBBBE0D9D006D105D1A8E8B3E181
:100456001DD23FD114D2E096E991EFBFF991E9910F
:10046600B991A9919991899179916991F990199088
:1004760009901895A898A99AAA9AE3B3E63F21F499
:100486009B9BFECFE1E00895EE3E21F49C9BFECFC0
:10049600E4E00895EE3D21F49D9BFECFE7E008954C
:1004A600EE3B21F49E9BFECFEAE20895A89AA99816
:1004B600AA9AE3B3E53F21F49B9BFECFE2E00895C1
:1004C600ED3E21F49C9BFECFE5E00895ED3D21F441
:1004D6009D9BFECFE8E00895ED3B21F49E9BFECF69
:1004E600E0E00895A89AA99AAA98E3B3E33F21F415
:1004F6009B9BFECFE3E00895EB3E21F49C9BFECF51
:10050600E6E00895EB3D21F49D9BFECFE9E00895DA
:10051600EB3B21F49E9BFECFEBE00895ABCF1A9305
:100526000A938D01E199FECF1FBB0EBBE09AEDB396
:100536008FC0A0D11A2F2C813D81E199FECF3FBB00
:100546002EBB1DBBE29AE19A5EC07CD1D801EC912C
:10055600E03051F0F9012F5F3F4FFA93EA930F5FB6
:100566001F4FAC91E6DFF2CF3A932A93A0E0E1DF8A
:100576004AC07ED19D014E815F8100E010E00217E6
:100586001307B0F4F801E40FF51FFF93EF93A88566
:10059600B985A00FB11FC3DFAF91BF91EC93F801EE
:1005A600E40FF51FE081E03019F00F5F1F4FE7CF32
:1005B60066D12A9608955ED100E010E020E030E092
:1005C6002530E0E03E07C4F41A930A9340D1E35D78
:1005D600FD4FDF01BADF06D13AD1ED5CFD4FDF01F9
:1005E600B4DF0FD134D1E95CFD4FDF01AEDF0C5F24
:1005F6001F4F2F5F3F4FE4CF95C024D16AD0D9015A
:1006060085D0D80143D13DD1269608951A930A93F1
:100616008D0130DFE05DD801EC93AC9164D02ADF28
:10062600E05DD8011196EC93F801A1815CD022DF40
:10063600E05DD8011296EC93F801A28154D0F8013E
:100646003396A0E0A083A8EEB3E020D1E1E0F0E08D
:10065600099119910895979AA4EFB1E017D1979847
:10066600A4EFB1E013D1979A08951A931A2FEBB31A
:10067600EF70AE2FE12FE07FEA2BEBBB8DE08A9582
:10068600F1F7DA9A8DE08A95F1F7DA988DE08A9596
:10069600F1F774C0AA93A881E8DFE881E295E883C0
:1006A600A881E3DF85E88A95F1F7219608951A93E4
:1006B6000A931A2F0A81E12FF0E0ED58FD4FE081F1
:1006C600E00FAE2FE7DF502E412E198108812396C9
:1006D6000895A2E0C2D0ACE0DDDFA1E0BED0E0E04C
:1006E6004E2E5E2E08951A931A2F1A3011F05714B3
:1006F60038F0E0E0EA934394A42DD9DF1A30F1F103
:100706005394D89AA12FC6DFD89838C0B3D09D018C
:10071600D9012F5F3F4FEC911E2FE03019F0A12F2A
:10072600E2DFF6CFAED0249608951A931A2FEAB3D5
:10073600E06FEABBD29AD09AD19ADA98D898D9982B
:10074600712EE12FE058E0937502E12FE054E0931B
:100756007602A4E1B0E09AD084D083D082D0A0E221
:1007660084DF88EC90E00197F1F7A8E293DFA4E03C
:1007760091DFA5E88FDFA6E08DDFABDF1991089545
:10078600BA93AA93E991F991A991B9916D91719151
:10079600671721F46623D1F7EE270895671BE1F367
:1007A600E1E008F4E25008950A921A92FA926A93E6
:1007B6007A938A939A93AA93BA93EA93FA93EFB7A2
:1007C600EA93089555D000E010E020E030E0089567
:1007D600FA93EA93A8EEB3E010CFFA93EA93A6E071
:1007E600B0E0C7CE0A5F1F4F1A930A930895FE0121
:1007F6007296FA93EA930895FE017096FA93EA9335
:1008060008950C5F1F4F1A930A930895FA93EA937B
:10081600A4E0B0E0AECE2A5F3F4F3A932A93089504
:10082600DE019C96ADDFE0300895DE019696EEDEA1
:1008360030970895FA93EA93A8EBBBE0DEDE41E039
:1008460050E0089517D08D012C813D810895AEE0CA
:10085600A29FF001A39FF00D08951CDFA3E0B0E076
:1008660015C0A0E302DF88EC90E00197F1F7089548
:100876005A934A933A932A931A930A9308955D8159
:100886004C813B812A81198108810895109639F09F
:10089600A89580ED97E00197F1F71197C9F70895AC
:00000001FF
