:080000000C9447010C9402046A
:100008000C94FC030C9400000C9400000C94000069
:100018000C9400000C9400000C9400000C94000058
:100028000C9400000C9400000C9400000C94000048
:100038000C9400000C9400000C9400000C94000038
:100048000C94FF030C9400000C9400001027E803A4
:1000580064000A0001000010000110000100507245
:100068006F660000313131003230330041686D6510
:1000780064003132360031323900416D72000000BF
:1000880031323800333235004164656C0000313359
:100098003000343236004F6D657200003133320063
:1000A8003037390050726F6600456E7465722041B2
:1000B800646D696E2050433A2000456E7465722065
:1000C80053747564656E742049443A2000456E7413
:1000D80065722073747564656E742773206E657716
:1000E8002050433A200053747564656E7420504361
:1000F8002069732073746F72656400456E7465724D
:1001080020796F7572206E65772050433A20005928
:100118006F75722050432069732073746F72656421
:1001280000436F6E746163742041646D696E0045AD
:100138006E74657220796F75722049443A00456E75
:10014800746572206F6C642050433A00456E746584
:1001580072206E65772050433A0052652D656E74A3
:100168006572206E65772050433A004E65772050BF
:10017800432073746F726564004E65772050432086
:100188006D69736D617463682C20436F6E7461636D
:10019800742061646D696E0057726F6E67206F6CB2
:1001A800642050432C202020436F6E7461637420B8
:1001B80061646D696E0057726F6E6720494400452F
:1001C8006E74657220796F75722049443A20004533
:1001D8006E74657220796F75722050433A2000570B
:1001E800656C636F6D652C2000536F727279207790
:1001F800726F6E672050430080C04500BD026600E4
:1002080005006001AC0011006501B1001300760122
:10021800C20019008901D5001500A201EE001400E2
:10022800B70103011200CB0117010E00DD012901FE
:100238000F00EB0137010E00FA0146010E0008021B
:1002480054011100160262010E00270273011F00FB
:10025800350281011E005402A00109007202BE018C
:1002680010007B02C70110008B02D7010A009B0215
:10027800E7010F00A502F1010900B402BE01020066
:10028800030300020000F894EE27ECBBF1E0FBBF8B
:10029800EBBFE5BF8DE0A2E0BB27ED938A95E9F7B8
:1002A80080E094E0A0E6ED930197E9F7E2E0F2E060
:1002B80085919591009761F0A591B591059015905C
:1002C800BF01F00105900D920197E1F7FB01F0CF16
:1002D800EFE5EDBFE4E0EEBFC0E6D1E00C94F20339
:1002E80005D0A0E1FBD207D009D00895E7E0E4BB30
:1002F800E8EFE5BB0895B898C09A08958F9A11C1A0
:10030800BA98C29AE4B7E064E4BF8A98929AE5B7CB
:10031800E260E5BFE5B7EE7FE5BFE5B7E860E5BFBA
:10032800E5B7EB7FE5BF8B98939A7894EBB7E068D5
:10033800EBBFEBB7E062EBBFEBB7E064EBBF089550
:10034800A898A99AAA9AE3B3E63F21F49B9BFECF0B
:10035800E1E00895EE3E21F49C9BFECFE4E0089591
:10036800EE3D21F49D9BFECFE7E00895EE3B21F49E
:100378009E9BFECFEAE20895A89AA998AA9AE3B3A9
:10038800E53F21F49B9BFECFE2E00895ED3E21F48A
:100398009C9BFECFE5E00895ED3D21F49D9BFECFAB
:1003A800E8E00895ED3B21F49E9BFECFE0E0089540
:1003B800A89AA99AAA98E3B3E33F21F49B9BFECF9E
:1003C800E3E00895EB3E21F49C9BFECFE6E0089520
:1003D800EB3D21F49D9BFECFE9E00895EB3B21F432
:1003E8009E9BFECFEBE00895ABCF1A930A938D0145
:1003F800E199FECF1FBB0EBBE09AEDB387C03AD39D
:100408001A2F2C813D81E199FECF3FBB2EBB1DBB2E
:10041800E29AE19A56C0A1D2D801EC91E03051F0AD
:10042800F9012F5F3F4FFA93EA930F5F1F4FAC918B
:10043800E6DFF2CF3A932A93A0E0E1DF42C018D377
:100448009D014E815F8100E010E002171307B0F4B0
:10045800F801E40FF51FFF93EF93A885B985A00F66
:10046800B11FC3DFAF91BF91EC93F801E40FF51F03
:10047800E081E03019F00F5F1F4FE7CF00D32A96D5
:100488000895F8D26FD22530E0E03E0794F46FD299
:10049800E354FD4FDF01BFDF0A5F1F4F68D2ED5302
:1004A800FD4F6DD264D2E953FD4F69D22F5F3F4FA4
:1004B800EACF0C946F0451D2E5D1D90100D2D8010A
:1004C800E5D2DFD2269608951A930A938D0138DF74
:1004D800E05DD801EC93AC91DFD132DFE05DD8016B
:1004E8001196EC93F801A181D7D12ADFE05DD801FC
:1004F8001296EC93F801A281CFD1F8013396A0E0CF
:10050800A083A8EEB3E0C2D2E1E0F0E0099119912E
:100518000895979AA4EFB1E0B9D29798A4EFB1E003
:10052800B5D2979A0895AA97A3D21CD240E050E07A
:10053800E0E0EE83EF83AE81BF8115970CF53A9327
:100548002A93FE013A9620D2FE013896FA93EA934E
:10055800A0E6B1E0EED1E03059F41BD21FD223D28D
:100568003A932A9326D2A4E0B0E069DF890108C053
:100578002C5F3F4FEE81FF813196EE83FF83DBCF07
:1005880020E030E0E5E6F1E019D21DD2DE019C96CC
:100598009BDF309709F44DC01AD2DE019E96C9D16F
:1005A800E03009F046C0E6E7F1E008D2DE019896AF
:1005B8008BDF3097F1F12297E0E0E883E983A881A7
:1005C800B9811597ACF5E5D1FE01B096FA93EA9397
:1005D800EAD1FE017E96FA93EA93FED179F4E9E82E
:1005E800F1E0ECD1FED149F03A932A93DE019896D6
:1005F80012DFE2EAF1E0FAD11BC012C0CFD1ECD190
:1006080079F4E7EBF1E0DAD1DED1EBD149F01A93D6
:100618000A93DE019896FFDEEBECF1E0E7D108C023
:100628002C5F3F4FE881F9813196E883F983C7CF82
:100638002296042E052A49F4EDEDF1E0FA93EA93A7
:10064800A8EBBBE038DF65DF64DFD8D118D2E096CD
:1006580008956D970DD286D115D1EBEEF1E0AED1AC
:10066800B2D1DE015E9630DF309709F45FC025977E
:1006780040E050E04530E0E05E070CF04DC0C2D1EC
:10068800FE017D96C4D1FE017B96FA93EA93DE01C2
:1006980095964FD1E030E1F5BFD1FE01B196B7D1C3
:1006A800EAEFF1E08BD18FD1BCD179F1FE017F96D1
:1006B800FA93EA93BAD121F5E8E0F2E07FD183D149
:1006C800DE01509601DFDED0E6E1F2E077D17BD1A2
:1006D800DE011B96F9DE62D1DE011D962AD1E030DB
:1006E80049F41A930A93DE01529695DEE7E2F2E0A6
:1006F80065D105C0E5E3F2E061D10BDF0ADF05C093
:10070800E4E5F2E05BD105DF04DF21E030E004C07E
:1007180091D14F5F5F4FAECF022E032A29F4E2E753
:10072800F2E04CD1F6DEF5DE69D12596A8D1A39684
:10073800089562979DD116D1EBE7F2E03FD143D1FE
:10074800DE015496C1DE3097C9F1249740E050E0AD
:100758004530E0E05E078CF51A930A93FE013C965B
:1007680013D150D134D1A4E0B0E069DE17D1DE0155
:100778005A96DFD0E030E9F44FD1FE01769647D1A2
:10078800EBE8F2E01BD11FD14CD181F012D14DD151
:1007980049F478D0ABE9B2E092D0DE011A968FD056
:1007A800B89A04C0E5EAF2E009D1B3DE21E030E00E
:1007B80004C040D14F5F5F4FCBCF2496022E032A4F
:1007C80029F4E4EBF2E0FAD0A4DEA3DEA8E8B3E172
:1007D8005DD1B89857D053D16896089581DD51DE20
:1007E8008FDDAEDD1E2F1A32E1F7A3DFFACFFFCF80
:1007F80026D12FDF05C023D19CDF02C020D193DE94
:10080800E991EFBFF991E991B991A99199918991EC
:1008180079916991F9901990099018951A931A2F5E
:10082800EBB3EF70AE2FE12FE07FEA2BEBBB8DE04F
:100838008A95F1F7DA9A8DE08A95F1F7DA988DE0E2
:100848008A95F1F774C0AA93A881E8DFE881E29558
:10085800E883A881E3DF85E88A95F1F72196089572
:100868001A930A931A2F0A81E12FF0E0ED5FFC4FEB
:10087800E081E00FAE2FE7DF502E412E198108816D
:1008880023960895A2E0E9D0ACE0DDDFA1E0E5D051
:10089800E0E04E2E5E2E08951A931A2F1A3011F0AA
:1008A800571438F0E0E0EA934394A42DD9DF1A30C6
:1008B800F1F15394D89AA12FC6DFD89838C0DAD06E
:1008C8009D01D9012F5F3F4FEC911E2FE03019F0A9
:1008D800A12FE2DFF6CFD5D0249608951A931A2FC8
:1008E800EAB3E06FEABBD29AD09AD19ADA98D8984C
:1008F800D998712EE12FE058E0930503E12FE054D9
:10090800E0930603A4E1B0E0C1D0ABD0AAD0A9D04F
:10091800A0E284DF88EC90E00197F1F7A8E293DF8A
:10092800A4E091DFA5E88FDFA6E08DDFABDF1991AA
:100938000895BA93AA93E991F991A991B9916D9102
:100948007191671721F46623D1F7EE270895671B85
:10095800E1F3E1E008F4E25008958CD08D012C8198
:100968003D81089500E010E020E030E008951A93FA
:100978000A93AEE0A29FF001A39FF00D0895DF0156
:100988004ADD0C5F1F4F0895FA93EA93A6E0B0E0A2
:1009980056CD2A5F3F4F3A932A930895FE017096E9
:1009A800FA93EA930895A4E0B0E049DD2C5F3F4F45
:1009B8000895FE017496FA93EA930895FA93EA93D8
:1009C800A8EEB3E078CDE0E0EA93A1E049CFFE01DC
:1009D8007296FA93EA930895DE019C96AADFE030B6
:1009E8000895DE01969670DD30970895FA93EA939C
:1009F800A8EBBBE060DD41E050E00895A8E8B3E172
:100A080045D040CF0A5F1F4F1A930A930895FA936F
:100A1800EA93A4E0B0E013CD0C5F1F4F1A930A933A
:100A28000895DE0151DD30970895DE01129681DFC9
:100A3800E03008950C5F1F4F0C5F1F4F08950A9216
:100A48001A92FA926A937A938A939A93AA93BA9388
:100A5800EA93FA93EFB7EA930895F5DEA3E0B0E0DE
:100A680015C0A0E3DBDE88EC90E00197F1F708956C
:100A78005A934A933A932A931A930A9308955D8155
:100A88004C813B812A81198108810895109639F09B
:100A9800A89580ED97E00197F1F71197C9F70895A8
:00000001FF
