:040000000C94AF00AD
:100004000C9400000C9400000C9400000C9400006C
:100014000C9400000C9400000C9400000C9400005C
:100024000C9400000C9400000C9400000C9400004C
:100034000C9400000C9400000C9400000C9400003C
:100044000C9400000C9400000C9400000C9400002C
:100054001027E80364000A000100001000011000EA
:100064000100600131313100323033006501313239
:100074003600313239006B01313238003332350009
:100084006F013133300034323600740131333200C1
:100094003037390050726F660041686D6564004105
:1000A4006D72004164656C004F6D657200456E743D
:1000B400657220796F75722049443A200055736542
:1000C4007220466F756E64002C53746F72656420E1
:1000D40050433A20257300456E74657220796F751C
:1000E400722050433A200057656C636F6D6500536E
:1000F4006F7272792077726F6E6720504300577267
:100104006F6E67204944000080C0050060019800BC
:10011400060065019D0004006B01A30005006F014A
:10012400A70005007401AC003100C4016600100092
:100134007901B1000B008901C10010009401DB00BA
:100144000800A401EB000F00AC01F3000900BB019F
:1001540002010200F6010C010000F894EE27ECBB4A
:10016400F1E0FBBFEBBFE5BF8DE0A2E0BB27ED9361
:100174008A95E9F780E094E0A0E6ED930197E9F72A
:10018400EEE0F1E085919591009761F0A591B5912C
:1001940005901590BF01F00105900D920197E1F7CC
:1001A400FB01F0CFEFE5EDBFE4E0EEBFC0E6D1E048
:1001B4000C94DC00E7E0E4BBE8EFE5BBA0E1C7D1C9
:1001C400B898C09A17D16497E0E0EA83EB83EC8394
:1001D400ED83E9E7F1E070D3DE01509633D1309737
:1001E40009F45AC02497E0E0EC83ED83AC81BD812F
:1001F40015970CF050C0E885F985329662D3FE015C
:100204003E9664D3FE013C96FA93EA93DE01569639
:10021400C9D1E030C1F5E9E8F1E04ED3E885F985CC
:1002240034964FD3FE01729651D3ECECF0E0FA937E
:10023400EA93FE01729666277727A3D384E015D349
:100244002696A0EDB7E0A2D3E4E9F1E035D3DE01D0
:10025400F9D0309799F0FE017096FA93EA93DE0193
:100264001296A0D1E03019F4E4EAF1E002C0ECEA1D
:10027400F1E0FA93EA93A8EEB3E0DBD0E1E0F0E03A
:10028400EE83FF8308C027D326D3EC81FD8131960A
:10029400EC83FD83ABCF2496EA81FB81309719F47C
:1002A400EBEBF1E009D3A0EDB7E070D364968BCF0C
:1002B400FFCFA898A99AAA9AE3B3E63F21F49B9B9F
:1002C400FECFE1E00895EE3E21F49C9BFECFE4E0F6
:1002D4000895EE3D21F49D9BFECFE7E00895EE3BAB
:1002E40021F49E9BFECFEAE00895A89AA998AA9AC1
:1002F400E3B3E53F21F49B9BFECFE2E00895ED3E9E
:1003040021F49C9BFECFE5E00895ED3D21F49D9BF7
:10031400FECFE8E00895ED3B21F49E9BFECFE0E0A4
:100324000895A89AA99AAA98E3B3E33F21F49B9B62
:10033400FECFE3E00895EB3E21F49C9BFECFE6E084
:100344000895EB3D21F49D9BFECFE9E00895EB3B3E
:1003540021F49E9BFECFEBE00895ABCF1A930A9352
:100364008D01E199FECF1FBB0EBBE09AEDB38CC0AB
:10037400F4D21A2F2C813D81E199FECF3FBB2EBBD5
:100384001DBBE29AE19A5BC0ACD2D801EC91E0309B
:1003940051F0F9012F5F3F4FFA93EA930F5F1F4F1C
:1003A400AC91E6DFF2CF3A932A93A0E0E1DF47C0B5
:1003B400D2D29D014E815F8100E010E00217130745
:1003C400B0F4F801E40FF51FFF93EF93A885B98506
:1003D400A00FB11FC3DFAF91BF91EC93F801E40FFD
:1003E400F51FE081E03019F00F5F1F4FE7CFBAD25D
:1003F4002A960895B2D200E010E020E030E02530E3
:10040400E0E03E07ACF472D2EC53FE4FDF01ED9115
:10041400FD91DF01B9DF0E5F1F4F68D2EA53FE4F33
:100424006DD264D2E653FE4F69D22F5F3F4FE7CFC0
:100434008BC057D260D0D9017BD0D801A7D294D237
:10044400269608951A930A938D0133DFE05DD8014F
:10045400EC93AC915AD02DDFE05DD8011196EC936A
:10046400F801A18152D025DFE05DD8011296EC930A
:10047400F801A2814AD0F8013396A0E0A083A8EE47
:10048400B3E084D2E1E0F0E00991199108951A9360
:100494001A2FEBB3EF70AE2FE12FE07FEA2BEBBB0B
:1004A4008DE08A95F1F7DA9A8DE08A95F1F7DA987A
:1004B4008DE08A95F1F774C0AA93A881E8DFE881FA
:1004C400E295E883A881E3DF85E88A95F1F7219630
:1004D40008951A930A931A2F0A81E12FF0E0EA5043
:1004E400FE4FE081E00FAE2FE7DF502E412E198141
:1004F400088123960895A2E006D2ACE0DDDFA1E0F6
:1005040002D2E0E04E2E5E2E08951A931A2F1A306E
:1005140011F0571438F0E0E0EA934394A42DD9DFA6
:100524001A30F1F15394D89AA12FC6DFD89838C065
:1005340014D29D01D9012F5F3F4FEC911E2FE03063
:1005440019F0A12FE2DFF6CF0FD2249608951A9363
:100554001A2FEAB3E06FEABBD29AD09AD19ADA980A
:10056400D898D998712EE12FE058E093F801E12F43
:10057400E054E093F901A4E1B0E008D2C8D1C7D1B6
:10058400C6D1A0E284DF88EC90E00197F1F7A8E2FD
:1005940093DFA4E091DFA5E88FDFA6E08DDFABDF7A
:1005A40019910895BA93AA93E991F991A991B991EE
:1005B4006D917191671721F46623D1F7EE270895A1
:1005C400671BE1F3E1E008F4E2500895BA93AA93BB
:1005D400A991B991EE27FF276D91662311F0319609
:1005E400FBCF0895BA93AA93AA27BB27E991F9915F
:1005F4000590002011F01196FBCFFD010895BA93E8
:10060400AA932697A8D110E0AC85BD85E0E0F0E080
:10061400ED93FC93EA89FB893196EA8BFB8B319746
:10062400E4912E2FE03009F40BC1E12FE03031F4D6
:10063400253211F411E001C071D101C1E130A1F4FE
:10064400253211F46BD1FAC012E040E000E02D3203
:1006540011F401E0F4C02B3211F44BE2F0C020326B
:1006640011F440E2ECC002C0E23039F450E013E08F
:10067400203311F40068E3C003C0E33009F0DFC0A5
:10068400203310F02A3308F007C0AAE05A9F502DF7
:10069400E22FE0535E0FD3C0E22FE33639F445D1A5
:1006A400E889F989A481AA9346D1C8C0E33729F41B
:1006B4003CD147D18BDF1E2F07C0E03749F435D139
:1006C40040D190DF1E2F086002600F7730E03AC0FF
:1006D400E43611F0E93611F4046002C0E53731F470
:1006E400E4E5F0E0EE83FF8315E00CC0E83511F497
:1006F400086003C0E83709F0A1C0EEE5F0E0EE833E
:10070400FF8314E002FF15C010D1A889B98914969B
:10071400ED91FD91EA87FB87AB85AA2322F429D1C9
:10072400EA87FB874DE2403011F01F5F01C00B7F69
:1007340009C0FBD0A889B9891496ED91FC91119751
:10074400EA87FB8700FD10C0151770F407FF08C087
:1007540002FF04C00B7F242F115001C020E301C00D
:1007640020E2DCD05150F0CF312F01FF16C03030E1
:1007740099F003FF06C0EE81FF812591EE83FF838C
:1007840005C0AE81BF812D91AE83BF83C7D05030E9
:1007940009F051503150EBCF48C020E3EE81FF8186
:1007A400ECD0E887F987EE81FF813296EE83FF83F0
:1007B400E885F985AA85BB85AE17BF0750F02F5F82
:1007C400A885B985EA85FB85EA1BFB0BEA87FB87CD
:1007D400EFCF2A3328F003FF02C0295F01C0295D4F
:1007E40004FD19C0213320F4A885B985119709F4B3
:1007F40009C0531710F000FF01C011C020E207FF29
:100804000AC020E3006102FF06C00B7F4A9393D025
:10081400503009F0515082D0503009F051503150CD
:10082400A885B985129708F0B8CF00FF07C05030EB
:1008340029F05150E0E2EA937ED0F9CF10E0EACEFD
:10084400AC85BD85ED91FD918DD06496089585D0DC
:100854008D013C81A32F59DED801ED91FD91319694
:10086400FE93EE9381D025960895FF92F82E269755
:100874001A930A93DE0114960024AF0DB01D8D0166
:10088400E0E0EC83ED83EE83EF83DE011896002431
:10089400AF0DB01DED91FD91FA93EA931A930A936B
:1008A400E9E2F4E0FA93EA93DE011896A8DE1981EE
:1008B40008812896FF900895FA93EA93A8EEB3E08E
:1008C400B8CDE887F987FA93EA930895FA93EA93FF
:1008D400A4E0B0E06DCDE885F9853496E887F98722
:1008E40008953BD08D012C813D8108951A930A937C
:1008F400AAE0A29FF001A39FF00D0895DF0144DD5B
:100904000C5F1F4F0895D8DDA3E0B0E03FC0A0E323
:10091400BEDD88EC90E00197F1F708952A93AD8548
:10092400BE85EF85F88909950895E889F989349792
:10093400E88BF98B0895AD85BE85EF85F889099517
:100944000895A889B9891496ED91FD91EE83FF83EA
:10095400AE81BF8108955A934A933A932A931A9386
:100964000A9308955D814C813B812A811981088114
:100974000895F195E195F04008950590F491E02DE6
:1009840008957A936A93FA93EA930895109639F046
:10099400A89580ED97E00197F1F71197C9F70895AD
:00000001FF
