:040000000C949F00BD
:100004000C9400000C9400000C9400000C9400006C
:100014000C9400000C9400000C9400000C9400005C
:100024000C9400000C9400000C9400000C9400004C
:100034000C9400000C9400000C9400000C9400003C
:100044000C9400000C9400000C9400000C9400002C
:100054001027E80364000A000100001000011000EA
:10006400010060016F00CB0065017E0081006B011F
:10007400800045016F018200AA01740184003F00E1
:1000840050726F660041686D656400416D72004195
:1000940064656C004F6D657200456E7465722079FD
:1000A4006F75722049443A20005573657220466F7B
:1000B400756E6400256400456E74657220796F75F1
:1000C400722050433A200057656C636F6D6500538E
:1000D4006F7272792077726F6E6720504300577287
:1000E4006F6E67204944000080C0050060018400F1
:1000F40006006501890004006B018F0005006F0193
:1001040093000500740198001D00C40166001000EE
:1001140079019D000B008901AD0010009401BB0022
:100124000800A401CB000F00AC01D3000900BB01FF
:10013400E2000200E201EC000000F894EE27ECBBC0
:10014400F1E0FBBFEBBFE5BF8DE0A2E0BB27ED9381
:100154008A95E9F780E094E0A0E6ED930197E9F74A
:10016400EEEEF0E085919591009761F0A591B5913F
:1001740005901590BF01F00105900D920197E1F7EC
:10018400FB01F0CFEFE5EDBFE4E0EEBFC0E6D1E068
:100194000C94CC00E7E0E4BBE8EFE5BBA0E1A1D11F
:1001A400B898C09AF5D02E97E0E0EA83EB83EC830D
:1001B400ED83E9E7F1E036D3EC87FD87E0E0E883FF
:1001C400E983A881B9815E97D4F532D337D3E88720
:1001D400F987EC85FD85A885B985EA17FB0739F50C
:1001E400E9E8F1E0FA93EA93A8E8B3E1F0D020D388
:1001F400E8EBF0E0FA93EA93AA81BB81E6E00E947F
:100204007104E853FE4FDF01ED91FD9166277727D6
:1002140070D384E0E0D22696A8E8B3E16FD30ED37E
:10022400EA87FB87E1E0F0E0EA83FB8308C000D3C0
:10023400FFD2E881F9813196E883F983C2CFEA815C
:10024400FB813097B9F02297E4E9F1E0EBD2E8833F
:10025400F983AC85BD85EA17FB0719F4E4EAF1E0FC
:1002640002C0ECEAF1E0FA93EA93A8EEB3E0AFD06F
:10027400229607C0EBEBF1E0FA93EA93A8EEB3E021
:10028400A6D0A0EDB7E03AD32E968DCFFFCFA89895
:10029400A99AAA9AE3B3E63F21F49B9BFECFE1E03F
:1002A4000895EE3E21F49C9BFECFE4E00895EE3DDC
:1002B40021F49D9BFECFE7E00895EE3B21F49E9B45
:1002C400FECFEAE00895A89AA998AA9AE3B3E53F75
:1002D40021F49B9BFECFE2E00895ED3E21F49C9B2C
:1002E400FECFE5E00895ED3D21F49D9BFECFE8E0CF
:1002F4000895ED3B21F49E9BFECFE0E00895A89A7B
:10030400A99AAA98E3B3E33F21F49B9BFECFE3E0D1
:100314000895EB3E21F49C9BFECFE6E00895EB3D6F
:1003240021F49D9BFECFE9E00895EB3B21F49E9BD5
:10033400FECFEBE00895ABCF1A930A938D01E199B8
:10034400FECF1FBB0EBBE09AEDB30991199108953E
:10035400B6D21A2F2C813D81E199FECF3FBB2EBB33
:100364001DBBE29AE19A39C06ED2D801EC91E0301B
:1003740051F0F9012F5F3F4FFA93EA930F5F1F4F3C
:10038400AC91E6DFF2CF3A932A93A0E0E1DF25C0F7
:1003940096D200E010E020E030E02E31E0E03E07AD
:1003A400ACF456D2EC53FE4FDF01ED91FD91DF0129
:1003B400DBDF0E5F1F4F4CD2EA53FE4F51D248D2BF
:1003C400E853FE4F4DD22F5F3F4FE7CF87C03BD25C
:1003D4005CD0D90177D0D80191D278D226960895ED
:1003E4006ED255DF1E2FA12FA05D59D050DF0E2FE6
:1003F400A02FA05D54D04BDF3E2FA32FA05D4FD084
:10040400A8EEB3E07BD2E4E6E19FF001DF01EAE08D
:10041400E09FF001AE0FBF1FE32FF0E0EA0FFB1FD8
:100424005DC01A931A2FEBB3EF70AE2FE12FE07F6C
:10043400EA2BEBBB8DE08A95F1F7DA9A8DE08A9589
:10044400F1F7DA988DE08A95F1F774C0AA93A88140
:10045400E8DFE881E295E883A881E3DF85E88A950F
:10046400F1F7219608951A930A931A2F0A81E12F1E
:10047400F0E0EE51FE4FE081E00FAE2FE7DF502EAB
:10048400412E1981088123960895A2E0EED1ACE0B3
:10049400DDDFA1E0EAD1E0E04E2E5E2E08951A934E
:1004A4001A2F1A3011F0571438F0E0E0EA9343940D
:1004B400A42DD9DF1A30F1F15394D89AA12FC6DFB5
:1004C400D89838C0FCD19D01D9012F5F3F4FEC91E2
:1004D4001E2FE03019F0A12FE2DFF6CFF7D12496DA
:1004E40008951A931A2FEAB3E06FEABBD29AD09A0E
:1004F400D19ADA98D898D998712EE12FE058E093E0
:10050400E401E12FE054E093E501A4E1B0E0F6D189
:10051400B0D1AFD1AED1A0E284DF88EC90E00197F6
:10052400F1F7A8E293DFA4E091DFA5E88FDFA6E06E
:100534008DDFABDF19910895BA93AA93A991B9916C
:10054400EE27FF276D91662311F03196FBCF0895B6
:10055400BA93AA93AA27BB27E991F99105900020A1
:1005640011F01196FBCFFD010895BA93AA93269733
:10057400A4D110E0AC85BD85E0E0F0E0ED93FC9300
:10058400EA89FB893196EA8BFB8B3197E4912E2F14
:10059400E03009F40BC1E12FE03031F4253211F4DD
:1005A40011E001C06DD101C1E130A1F4253211F493
:1005B40067D1FAC012E040E000E02D3211F401E00E
:1005C400F4C02B3211F44BE2F0C0203211F440E2BB
:1005D400ECC002C0E23039F450E013E0203311F4EF
:1005E4000068E3C003C0E33009F0DFC0203310F03B
:1005F4002A3308F007C0AAE05A9F502DE22FE05397
:100604005E0FD3C0E22FE33639F441D1E889F9898A
:10061400A481AA9342D1C8C0E33729F438D143D185
:100624008BDF1E2F07C0E03749F431D13CD190DF76
:100634001E2F086002600F7730E03AC0E43611F0F4
:10064400E93611F4046002C0E53731F4E4E5F0E082
:10065400EE83FF8315E00CC0E83511F4086003C095
:10066400E83709F0A1C0EEE5F0E0EE83FF8314E083
:1006740002FF15C00CD1A889B9891496ED91FD919A
:10068400EA87FB87AB85AA2322F425D1EA87FB8777
:100694004DE2403011F01F5F01C00B7F09C0F7D05D
:1006A400A889B9891496ED91FC911197EA87FB8783
:1006B40000FD10C0151770F407FF08C002FF04C046
:1006C4000B7F242F115001C020E301C020E2D8D0B9
:1006D4005150F0CF312F01FF16C0303099F003FF95
:1006E40006C0EE81FF812591EE83FF8305C0AE81B4
:1006F400BF812D91AE83BF83C3D0503009F05150D8
:100704003150EBCF48C020E3EE81FF81EED0E88783
:10071400F987EE81FF813296EE83FF83E885F985C0
:10072400AA85BB85AE17BF0750F02F5FA885B98592
:10073400EA85FB85EA1BFB0BEA87FB87EFCF2A33AD
:1007440028F003FF02C0295F01C0295D04FD19C020
:10075400213320F4A885B985119709F409C05317EA
:1007640010F000FF01C011C020E207FF0AC020E31F
:10077400006102FF06C00B7F4A938FD0503009F00E
:1007840051507ED0503009F051503150A885B98570
:10079400129708F0B8CF00FF07C0503029F051502D
:1007A400E0E2EA937AD0F9CF10E0EACEAC85BD85D9
:1007B400ED91FD9189D06496089581D08D013C819D
:1007C400A32F6DDED801ED91FD913196FE93EE934A
:1007D4007DD025960895FF92F82E26971A930A93B2
:1007E400DE0114960024AF0DB01D8D01E0E0EC8312
:1007F400ED83EE83EF83DE0118960024AF0DB01D68
:10080400ED91FD91FA93EA931A930A93EFEDF3E0D5
:10081400FA93EA93DE011896A8DE198108812896D6
:10082400FF900895FA93EA93A8EEB3E0D0DDD8CD13
:10083400EC81FD813296EC83FD830895AC81BD810A
:100844007BDDF0E008953BD08D012C813D8108953E
:100854001A930A93A6E0A29FF001A39FF00D0895B6
:10086400A08176DD0E5F1F4F0895F0DDA3E0B0E0B8
:1008740045C0A0E3D6DD88EC90E00197F1F7089538
:100884002A93AD85BE85EF85F88909950895E88991
:10089400F9893497E88BF98B0895AD85BE85EF858A
:1008A400F88909950895A889B9891496ED91FD915F
:1008B400EE83FF83AE81BF8108955A934A933A939E
:1008C4002A931A930A9308955D814C813B812A816E
:1008D400198108810895F195E195F04008956E2FEE
:1008E4006A9FF0016B9FF00D08950590F491E02D3F
:1008F40008957A936A93FA93EA930895109639F0D7
:10090400A89580ED97E00197F1F71197C9F708953D
:00000001FF
