:100000000C948E000C94D2000C9400000C94000010
:100010000C9400000C9400000C9400000C94000060
:100020000C9400000C9400000C9400000C94000050
:100030000C9400000C9400000C9400000C94000040
:100040000C9400000C9400000C9400000C94000030
:100050000C9400001027E80364000A00010000105F
:1000600000011000010050726F6600003131310054
:100070003230330041686D65640031323600313210
:100080003900416D720000003132380033323500E2
:100090004164656C000031333000343236004F6DFE
:1000A000657200003133320030373900456E7465B7
:1000B0007220796F75722049443A2000456E74654C
:1000C0007220796F75722050433A200057656C6337
:1000D0006F6D652C2000536F7272792077726F6E8E
:1000E000672050430057726F6E672049440080C0FC
:1000F0004500A201660010006001AC001000700114
:10010000BC000A008001CC000F008A01D600090063
:100110009901E5000200E801EE000000F894EE27E6
:10012000ECBBF1E0FBBFEBBFE5BF8DE0A2E0BB277E
:10013000ED938A95E9F780E094E0A0E6ED930197CE
:10014000E9F7E0EFF0E085919591009761F0A591D6
:10015000B59105901590BF01F00105900D920197A2
:10016000E1F7FB01F0CFEFE5EDBFE4E0EEBFC0E665
:10017000D1E00C94BB00E7E0E4BBE8EFE5BBA0E115
:10018000E9D1B898C09A8F9A979A2DD1929AE5B7EB
:10019000E260E5BFE5B7EE7FE5BF7894EBB7E064DA
:1001A000EBBFFFCF0A921A92FA926A937A938A93DC
:1001B0009A93AA93BA93EA93FA93EFB7EA93629762
:1001C00037D207D2E0E6F1E009D2DE01549633D10E
:1001D000309709F44AC0249740E050E04530E0E011
:1001E0005E070CF041C01A930A93FE013C96FA9305
:1001F000EA93A6E0B0E0D5D0F6D1FE017296F8D130
:10020000FE017096FA93EA93DE015A96CED1E03061
:1002100021F5F3D1FE017696EBD1E0E7F1E0DED1F6
:10022000DE0109D13097B1F0FE017496FA93EA939A
:10023000DE011296BAD1E03049F460D1A0E8B1E015
:100240007AD1DE011A9677D1B89A04C0EAE8F1E0D3
:10025000C5D116D121E030E007C00C5F1F4F0C5F05
:100260001F4F4F5F5F4FBACF2496022E032A29F407
:10027000E9E9F1E0B3D104D103D1A8E8B3E1E6D1D3
:10028000B8983CD1DCD16896E991EFBFF991E9913A
:10029000B991A9919991899179916991F990199060
:1002A00009901895A898A99AAA9AE3B3E63F21F471
:1002B0009B9BFECFE1E00895EE3E21F49C9BFECF98
:1002C000E4E00895EE3D21F49D9BFECFE7E0089524
:1002D000EE3B21F49E9BFECFEAE20895A89AA998EE
:1002E000AA9AE3B3E53F21F49B9BFECFE2E0089599
:1002F000ED3E21F49C9BFECFE5E00895ED3D21F419
:100300009D9BFECFE8E00895ED3B21F49E9BFECF40
:10031000E0E00895A89AA99AAA98E3B3E33F21F4EC
:100320009B9BFECFE3E00895EB3E21F49C9BFECF28
:10033000E6E00895EB3D21F49D9BFECFE9E00895B2
:10034000EB3B21F49E9BFECFEBE00895ABCF1A93DD
:100350000A938D01E199FECF1FBB0EBBE09AEDB36E
:100360008CC068D11A2F2C813D81E199FECF3FBB13
:100370002EBB1DBBE29AE19A5BC044D1D801EC913F
:10038000E03051F0F9012F5F3F4FFA93EA930F5F8E
:100390001F4FAC91E6DFF2CF3A932A93A0E0E1DF62
:1003A00047C046D19D014E815F8100E010E00217F9
:1003B0001307B0F4F801E40FF51FFF93EF93A8853E
:1003C000B985A00FB11FC3DFAF91BF91EC93F801C6
:1003D000E40FF51FE081E03019F00F5F1F4FE7CF0A
:1003E0002ED12A96089526D1F4D02530E0E03E079C
:1003F000C4F41A930A930BD1EE55FE4FDF01BDDF13
:10040000F2D005D1E855FE4FDF01B7DFF6D0FFD0BF
:10041000E455FE4FDF01B1DF0C5F1F4F2F5F3F4FF1
:10042000E4CF95C0EFD06AD0D90185D0D8010ED1E4
:1004300008D1269608951A930A938D0133DFE05D63
:10044000D801EC93AC9164D02DDFE05DD80111961A
:10045000EC93F801A1815CD025DFE05DD801129614
:10046000EC93F801A28154D0F8013396A0E0A08368
:10047000A8EEB3E0EBD0E1E0F0E009911991089526
:10048000979AA4EFB1E0E2D09798A4EFB1E0DED064
:10049000979A08951A931A2FEBB3EF70AE2FE12FAE
:1004A000E07FEA2BEBBB8DE08A95F1F7DA9A8DE0DD
:1004B0008A95F1F7DA988DE08A95F1F774C0AA93DE
:1004C000A881E8DFE881E295E883A881E3DF85E899
:1004D0008A95F1F7219608951A930A931A2F0A81A3
:1004E000E12FF0E0E851FE4FE081E00FAE2FE7DFB3
:1004F000502E412E1981088123960895A2E08DD0B7
:10050000ACE0DDDFA1E089D0E0E04E2E5E2E089564
:100510001A931A2F1A3011F0571438F0E0E0EA93CA
:100520004394A42DD9DF1A30F1F15394D89AA12F16
:10053000C6DFD89838C07ED09D01D9012F5F3F4FCC
:10054000EC911E2FE03019F0A12FE2DFF6CF79D029
:10055000249608951A931A2FEAB3E06FEABBD29A51
:10056000D09AD19ADA98D898D998712EE12FE0587C
:10057000E093EA01E12FE054E093EB01A4E1B0E065
:1005800065D04FD04ED04DD0A0E284DF88EC90E013
:100590000197F1F7A8E293DFA4E091DFA5E88FDFF0
:1005A000A6E08DDFABDF19910895BA93AA93E99184
:1005B000F991A991B9916D917191671721F4662311
:1005C000D1F7EE270895671BE1F3E1E008F4E2506C
:1005D000089500E010E020E030E00895FA93EA93F7
:1005E000A8EEB3E01FCF0A5F1F4F1A930A93089536
:1005F000FA93EA93A4E0B0E0D4CE0C5F1F4F1A93B5
:100600000A93089517D08D012C813D810895AEE0A5
:10061000A29FF001A39FF00D089551DFA3E0B0E089
:1006200015C0A0E337DF88EC90E00197F1F708955B
:100630005A934A933A932A931A930A9308955D81A1
:100640004C813B812A81198108810895109639F0E7
:10065000A89580ED97E00197F1F71197C9F70895F4
:00000001FF
