:060000000C9447010C9472
:1000060048040C9445040C9400000C9400000C94D5
:1000160000000C9400000C9400000C9400000C945A
:1000260000000C9400000C9400000C9400000C944A
:1000360000000C9400000C9400000C9400000C943A
:1000460000000C9400000C9400000C940000102793
:10005600E80364000A00010000100001100001001E
:1000660050726F6600003131310032303300416822
:100076006D6564003132360031323900416D7200EF
:10008600000031323800333235004164656C0000BF
:1000960031333000343236004F6D65720000313333
:1000A60032003037390050726F6600456E746572E3
:1000B6002041646D696E2050433A2000456E746598
:1000C600722053747564656E742049443A20004565
:1000D6006E7465722073747564656E742773206E12
:1000E60065772050433A200053747564656E74201A
:1000F60050432069732073746F72656400456E7493
:10010600657220796F7572206E65772050433A20AC
:1001160000596F75722050432069732073746F7293
:10012600656400436F6E746163742041646D696E2B
:1001360000456E74657220796F75722049443A00E5
:10014600456E746572206F6C642050433A00456EAC
:10015600746572206E65772050433A0052652D65AE
:100166006E746572206E65772050433A004E65774F
:100176002050432073746F726564004E657720507B
:1001860043206D69736D617463682C20436F6E74D0
:100196006163742061646D696E0057726F6E6720CB
:1001A6006F6C642050432C202020436F6E74616373
:1001B600742061646D696E0057726F6E67204944E2
:1001C60000456E74657220796F75722049443A2035
:1001D60000456E74657220796F75722050433A201F
:1001E6000057656C636F6D652C2000536F727279D2
:1001F6002077726F6E672050430080C04500BD02B5
:10020600660005006001AC0011006501B100130035
:100216007601C20019008901D5001500A201EE0081
:100226001400B70103011200CB0117010E00DD0116
:1002360029010F00EB0137010E00FA0146010E00FD
:10024600080254011100160262010E002702730112
:100256001F00350281011E005402A001090072022E
:10026600BE0110007B02C70110008B02D7010A00F5
:100276009B02E7010F00A502F1010900B402BE01CD
:100286000200030300020000F894EE27ECBBF1E045
:10029600FBBFEBBFE5BF8DE0A2E0BB27ED938A95E0
:1002A600E9F780E094E0A0E6ED930197E9F7E2E054
:1002B600F2E085919591009761F0A591B591059031
:1002C6001590BF01F00105900D920197E1F7FB0132
:1002D600F0CFEFE5EDBFE4E0EEBFC0E6D1E00C9471
:1002E6003B0405D0A0E141D307D00BD00895E7E049
:1002F600E4BBE8EFE5BB0895E7B3E861E7BBB89A6E
:1003060008958F9A46C1BA98C29AE4B7E064E4BFEA
:100316008A98929AE5B7E260E5BFE5B7EE7FE5BF5A
:10032600E5B7E860E5BFE5B7EB7FE5BF8B98939A45
:100336007894EBB7E068EBBFEBB7E062EBBFEBB7E7
:10034600E064EBBF0895A898A99AAA9AE3B3E63F9A
:1003560021F49B9BFECFE1E00895EE3E21F49C9BA9
:10036600FECFE4E00895EE3D21F49D9BFECFE7E04D
:100376000895EE3B21F49E9BFECFEAE00895A89AED
:10038600A998AA9AE3B3E53F21F49B9BFECFE2E04E
:100396000895ED3E21F49C9BFECFE5E00895ED3DEA
:1003A60021F49D9BFECFE8E00895ED3B21F49E9B52
:1003B600FECFE0E00895A89AA99AAA98E3B3E33F8E
:1003C60021F49B9BFECFE3E00895EB3E21F49C9B3A
:1003D600FECFE6E00895EB3D21F49D9BFECFE9E0DC
:1003E6000895EB3B21F49E9BFECFEBE00895ABCF47
:1003F6001A930A938D01E199FECF1FBB0EBBE09ABB
:10040600EDB309911991089585D31A2F2C813D8159
:10041600E199FECF3FBB2EBB1DBBE29AE19A56C0C7
:10042600E3D2D801EC91E03051F0F9012F5F3F4F54
:10043600FA93EA930F5F1F4FAC91E6DFF2CF3A9340
:100446002A93A0E0E1DF42C063D39D014E815F8124
:1004560000E010E002171307B0F4F801E40FF51FEF
:10046600FF93EF93A885B985A00FB11FC1DFAF91A8
:10047600BF91EC93F801E40FF51FE081E03019F02D
:100486000F5F1F4FE7CF4BD32A96089543D3B1D2C0
:100496002530E0E03E0794F4B1D2E354FD4FDF018E
:1004A600BFDF0A5F1F4FAAD2ED53FD4FAFD2A6D2D0
:1004B600E953FD4FABD22F5F3F4FEACF0C94B50403
:1004C60093D227D2D90142D2D80130D32AD3269645
:1004D600089526971A930A938D0135DFF0E0EA8393
:1004E600FB83AA81BB811A9711F4AAE208C0AA81EC
:1004F600BB811B9711F4A3E202C0AA81A05D13D2AF
:1005060022DFF0E0EC83FD83AC81BD811A9711F404
:10051600AAE208C0AC81BD811B9711F4A3E202C018
:10052600AC81A05D00D20FDFF0E0EE83FF83AE81E9
:10053600BF811A9711F4AAE208C0AE81BF811B974A
:1005460011F4A3E202C0AE81A05DEDD1EA81E05DC7
:10055600D801EC93EC81E05DD8011196EC93EE8125
:10056600E05DD8011296EC93F8013396A0E0A083E3
:10057600A8EEB3E0DBD2E1E0F0E01981088128962D
:100586000895979AA4EFB1E0D1D29798A4EFB1E07D
:10059600CDD2979A0895C09AC3983DD20895C0982F
:1005A600C39A39D2C398C39AA4EFB1E0BFD2C39815
:1005B6000895AA97ADD21DD240E050E0E0E0EE8368
:1005C600EF83AE81BF8115970CF53A932A93FE010E
:1005D6003A962AD2FE013896FA93EA93A0E6B1E05B
:1005E600EFD1E03059F425D229D22DD23A932A936D
:1005F60030D2A4E0B0E028DF890108C02C5F3F4F6D
:10060600EE81FF813196EE83FF83DBCF20E030E081
:10061600E5E6F1E023D227D2DE019C965ADF309739
:1006260009F44DC024D2DE019E96CAD1E03009F00D
:1006360046C0E6E7F1E012D2DE0198964ADF30972F
:10064600F1F12297E0E0E883E983A881B981159763
:10065600ACF5EFD1FE01B096FA93EA93F4D1FE0120
:100666007E96FA93EA9308D279F4E9E8F1E0F6D1B6
:1006760008D249F03A932A93DE019896D1DEE2EA4F
:10068600F1E004D21BC012C0D9D1F6D179F4E7EB60
:10069600F1E0E4D1E8D1F5D149F01A930A93DE01ED
:1006A6009896BEDEEBECF1E0F1D108C02C5F3F4F2F
:1006B600E881F9813196E883F983C7CF2296042E23
:1006C600052A49F4EDEDF1E0FA93EA93A8EBBBE0D5
:1006D600F7DE57DF56DFE2D122D2E09608956D9716
:1006E60017D287D116D1EBEEF1E0B8D1BCD1DE013D
:1006F6005E96EFDE309709F45FC0259740E050E044
:100706004530E0E05E070CF04DC0CCD1FE017D9691
:10071600CED1FE017B96FA93EA93DE01959650D1EF
:10072600E030E1F5C9D1FE01B196C1D1EAEFF1E0C1
:1007360095D199D1C6D179F1FE017F96FA93EA93C4
:10074600C4D121F5E8E0F2E089D18DD1DE015096E1
:10075600C0DEDFD0E6E1F2E081D185D1DE011B9675
:10076600B8DE6CD1DE011D962BD1E03049F41A9328
:100776000A93DE01529654DEE7E2F2E06FD105C03D
:10078600E5E3F2E06BD1FDDEFCDE05C0E4E5F2E078
:1007960065D1F7DEF6DE21E030E004C09BD14F5F85
:1007A6005F4FAECF022E032A29F4E2E7F2E056D1DC
:1007B600E8DEE7DE73D12596B2D1A3960895629757
:1007C600A7D117D1EBE7F2E049D14DD1DE0154961E
:1007D60080DE309709F440C0249740E050E0453071
:1007E600E0E05E07C4F51A930A93FE013C961CD11D
:1007F60059D13DD1A4E0B0E027DE20D1DE015A96E2
:10080600DFD0E03021F558D1FE01769650D1EBE8E5
:10081600F2E024D128D155D1B9F01BD156D181F4BB
:1008260078D0ABE9B2E092D0DE011A968FD0B3DE73
:10083600A0EDB7E07BD1B3DEA0EDB7E077D104C081
:10084600E5EAF2E00BD19DDE21E030E004C042D1C2
:100856004F5F5F4FC4CF2496022E032A29F4E4EBA0
:10086600F2E0FCD08EDE8DDE54D059D16896089524
:1008760038DD0CDE48DD67DD1E2F1A3009F49FDFF8
:10088600FACFFFCF2CD12BDF02C029D192DEE9911E
:10089600EFBFF991E991B991A991999189917991CE
:1008A6006991F9901990099018951A931A2FEBB33C
:1008B600EF70AE2FE12FE07FEA2BEBBB8DE08A9540
:1008C600F1F7DA9A8DE08A95F1F7DA988DE08A9554
:1008D600F1F774C0AA93A881E8DFE881E295E8837E
:1008E600A881E3DF85E88A95F1F7219608951A93A2
:1008F6000A931A2F0A81E12FF0E0ED5FFC4FE081A9
:10090600E00FAE2FE7DF502E412E19810881239686
:100916000895A2E0F2D0ACE0DDDFA1E0EED0E0E0A9
:100926004E2E5E2E08951A931A2F1A3011F0571470
:1009360038F0E0E0EA934394A42DD9DF1A30F1F1C0
:100946005394D89AA12FC6DFD89838C0E3D09D011A
:10095600D9012F5F3F4FEC911E2FE03019F0A12FE8
:10096600E2DFF6CFDED0249608951A931A2FEAB363
:10097600E06FEABBD29AD09AD19ADA98D898D998E9
:10098600712EE12FE058E0930503E12FE054E09348
:100996000603A4E1B0E0CAD0B4D0B3D0B2D0A0E28E
:1009A60084DF88EC90E00197F1F7A8E293DFA4E0FA
:1009B60091DFA5E88FDFA6E08DDFABDF1991089503
:1009C600BA93AA93E991F991A991B9916D9171910F
:1009D600671721F46623D1F7EE270895671BE1F325
:1009E600E1E008F4E250089595D08D012C813D8117
:1009F600089500E010E020E030E008951A930A938D
:100A0600AEE0A29FF001A39FF00D0895DF0108DD7F
:100A16000C5F1F4F0895A4EFB1E088D0C49AA8EEEA
:100A2600B3E084D0C4980895FA93EA93A6E0B0E0C0
:100A36000BCD2A5F3F4F3A932A930895FE01709695
:100A4600FA93EA930895A4E0B0E0FEDC2C5F3F4FF2
:100A56000895FE017496FA93EA930895FA93EA9339
:100A6600A8EEB3E02DCDE0E0EA93A1E040CFFE0191
:100A76007296FA93EA930895DE019C96A1DFE03020
:100A86000895DE01969625DD30970895FA93EA9348
:100A9600A8EBBBE015DD41E050E00895A8E8B3E11E
:100AA60045D037CF0A5F1F4F1A930A930895FA93DA
:100AB600EA93A4E0B0E0C8CC0C5F1F4F1A930A93E8
:100AC6000895DE0106DD30970895DE01129678DF7F
:100AD600E03008950C5F1F4F0C5F1F4F08950A9278
:100AE6001A92FA926A937A938A939A93AA93BA93EA
:100AF600EA93FA93EFB7EA930895ECDEA3E0B0E049
:100B060015C0A0E3D2DE88EC90E00197F1F70895D6
:100B16005A934A933A932A931A930A9308955D81B6
:100B26004C813B812A81198108810895109639F0FC
:100B3600A89580ED97E00197F1F71197C9F7089509
:00000001FF
