:080000000C949F000C94000019
:100008000C9400000C9400000C9400000C94000068
:100018000C9400000C9400000C9400000C94000058
:100028000C9400000C9400000C9400000C94000048
:100038000C9400000C9400000C9400000C94000038
:100048000C9400000C9400000C9400001027E803A6
:1000580064000A00010000100001100001006001A6
:1000680031313100323033006501313236003132FE
:1000780039006B0131323800333235006F013133CA
:1000880030003432360074013133320030373900F1
:1000980050726F660041686D656400416D72004181
:1000A80064656C004F6D657200456E7465722079E9
:1000B8006F75722049443A2000456E746572207944
:1000C8006F75722050433A200057656C636F6D65F9
:1000D80000536F7272792077726F6E6720504300F9
:1000E80057726F6E67204944000080C005006001A8
:1000F8009800060065019D0004006B01A30005003F
:100108006F01A70005007401AC003100B901660059
:1001180010007901B10010008901C100080099019F
:10012800D1000F00A101D9000900B001E8000200C8
:10013800EB01F2000000F894EE27ECBBF1E0FBBF06
:10014800EBBFE5BF8DE0A2E0BB27ED938A95E9F709
:1001580080E094E0A0E6ED930197E9F7E4EFF0E0A2
:1001680085919591009761F0A591B59105901590AD
:10017800BF01F00105900D920197E1F7FB01F0CF67
:10018800EFE5EDBFE4E0EEBFC0E6D1E00C94CC00B3
:10019800E7E0E4BBE8EFE5BBA0E1C1D1B898C09ABD
:1001A8008F9A979A05D16497E0E0EA83EB83EC8312
:1001B800ED83E9E7F1E0F2D1DE01509621D13097E5
:1001C80009F446C02497E0E0EC83ED83AC81BD815F
:1001D8001597ECF5E885F9853296E5D1FE013E964E
:1001E800E7D1FE013C96FA93EA93DE015696C2D116
:1001F800E03029F5E885F9853496D5D1FE01729667
:10020800D7D1E9E8F1E0CAD1DE01FAD0309791F010
:10021800FE017096FA93EA93DE011296ABD1E030B4
:1002280029F4E9E9F1E0BAD1B89A03C0E1EAF1E0CA
:10023800B5D10BD1E1E0F0E0EE83FF8308C0BDD17A
:10024800BCD1EC81FD813196EC83FD83BFCF249630
:10025800EA81FB81309729F4E0EBF1E09FD1F5D0FA
:10026800F4D0A0EDB7E0DAD164969DCFFFCFA8987F
:10027800A99AAA9AE3B3E63F21F49B9BFECFE1E05B
:100288000895EE3E21F49C9BFECFE4E00895EE3DF8
:1002980021F49D9BFECFE7E00895EE3B21F49E9B61
:1002A800FECFEAE00895A89AA998AA9AE3B3E53F91
:1002B80021F49B9BFECFE2E00895ED3E21F49C9B48
:1002C800FECFE5E00895ED3D21F49D9BFECFE8E0EB
:1002D8000895ED3B21F49E9BFECFE0E00895A89A97
:1002E800A99AAA98E3B3E33F21F49B9BFECFE3E0EE
:1002F8000895EB3E21F49C9BFECFE6E00895EB3D8C
:1003080021F49D9BFECFE9E00895EB3B21F49E9BF1
:10031800FECFEBE00895ABCF1A930A938D01E199D4
:10032800FECF1FBB0EBBE09AEDB38CC06BD11A2F6A
:100338002C813D81E199FECF3FBB2EBB1DBBE29ACC
:10034800E19A5BC040D1D801EC91E03051F0F9015D
:100358002F5F3F4FFA93EA930F5F1F4FAC91E6DF91
:10036800F2CF3A932A93A0E0E1DF47C049D19D013B
:100378004E815F8100E010E002171307B0F4F80126
:10038800E40FF51FFF93EF93A885B985A00FB11F60
:10039800C3DFAF91BF91EC93F801E40FF51FE08143
:1003A800E03019F00F5F1F4FE7CF31D12A9608953B
:1003B80029D100E010E020E030E02530E0E03E0701
:1003C800ACF406D1E754FE4FDF01ED91FD91DF015A
:1003D800B9DF0E5F1F4FFCD0E554FE4F01D1F8D0B6
:1003E800E154FE4FFDD02F5F3F4FE7CF95C0EBD0D4
:1003F8006AD0D90185D0D80111D10BD1269608959C
:100408001A930A938D0133DFE05DD801EC93AC9128
:1004180064D02DDFE05DD8011196EC93F801A1813D
:100428005CD025DFE05DD8011296EC93F801A2813B
:1004380054D0F8013396A0E0A083A8EEB3E0EED044
:10044800E1E0F0E0099119910895979AA4EFB1E0DD
:10045800E5D09798A4EFB1E0E1D0979A08951A9360
:100468001A2FEBB3EF70AE2FE12FE07FEA2BEBBB37
:100478008DE08A95F1F7DA9A8DE08A95F1F7DA98A6
:100488008DE08A95F1F774C0AA93A881E8DFE88126
:10049800E295E883A881E3DF85E88A95F1F721965C
:1004A80008951A930A931A2F0A81E12FF0E0E55173
:1004B800FE4FE081E00FAE2FE7DF502E412E19816D
:1004C800088123960895A2E090D0ACE0DDDFA1E09A
:1004D8008CD0E0E04E2E5E2E08951A931A2F1A3013
:1004E80011F0571438F0E0E0EA934394A42DD9DFD3
:1004F8001A30F1F15394D89AA12FC6DFD89838C092
:1005080081D09D01D9012F5F3F4FEC911E2FE03024
:1005180019F0A12FE2DFF6CF7CD0249608951A9324
:100528001A2FEAB3E06FEABBD29AD09AD19ADA9836
:10053800D898D998712EE12FE058E093ED01E12F7A
:10054800E054E093EE01A4E1B0E068D052D051D07D
:1005580050D0A0E284DF88EC90E00197F1F7A8E2A0
:1005680093DFA4E091DFA5E88FDFA6E08DDFABDFA6
:1005780019910895BA93AA93E991F991A991B9911A
:100588006D917191671721F46623D1F7EE270895CD
:10059800671BE1F3E1E008F4E2500895FA93EA9367
:1005A800A8EEB3E024CFE887F987FA93EA93089591
:1005B800FA93EA93A4E0B0E0D9CEE885F9853496B9
:1005C800E887F98708951ED08D012C813D81089513
:1005D8001A930A93AAE0A29FF001A39FF00D089531
:1005E800DF01B0DE0C5F1F4F08954EDFA3E0B0E0DF
:1005F80015C0A0E334DF88EC90E00197F1F7089587
:100608005A934A933A932A931A930A9308955D81C9
:100618004C813B812A81198108810895109639F00F
:10062800A89580ED97E00197F1F71197C9F708951C
:00000001FF
