:060000000C9495000C9425
:1000060000000C9400000C9400000C9400000C946A
:1000160000000C9400000C9400000C9400000C945A
:1000260000000C9400000C9400000C9400000C944A
:1000360000000C9400000C9400000C9400000C943A
:1000460000000C9400000C9400000C940000102793
:10005600E80364000A00010000100001100001001E
:1000660060016F00CB0065017E0081006B0180009E
:1000760045016F018200AA01740184003F0050729D
:100086006F660041686D656400416D72004164658C
:100096006C004F6D657200456E74657220796F75E0
:1000A600722049443A2000456E74657220796F7556
:1000B600722050433A200057656C636F6D6500539C
:1000C6006F7272792077726F6E6720504300577295
:1000D6006F6E67204944000080C0050060018400FF
:1000E60006006501890004006B018F0005006F01A1
:1000F60093000500740198001D00B9016600100008
:1001060079019D0010008901AD0008009901BD002C
:100116000F00A101C5000900B001D4000200D701FB
:10012600DE000000F894EE27ECBBF1E0FBBFEBBF6E
:10013600E5BF8DE0A2E0BB27ED938A95E9F780E065
:1001460094E0A0E6ED930197E9F7E0EEF0E0859103
:100156009591009761F0A591B59105901590BF0115
:10016600F00105900D920197E1F7FB01F0CFEFE565
:10017600EDBFE4E0EEBFC0E6D1E00C94C200E7E0DC
:10018600E4BBE8EFE5BBA0E181D1B898C09AD5D031
:100196002E97E0E0EA83EB83EC83ED83E9E7F1E079
:1001A600A0D1EC87FD87E0E0E883E983A881B981E7
:1001B6005E97D4F49CD1E887F987EC85FD85A88500
:1001C600B985EA17FB0741F4E1E0F0E0EA83FB8337
:1001D6008ED1EA87FB8708C094D193D1E881F98153
:1001E6003196E883F983E2CFEA81FB813097B9F053
:1001F6002297E9E8F1E075D1E883F983AC85BD85FE
:10020600EA17FB0719F4E9E9F1E002C0E1EAF1E0D7
:10021600FA93EA93A8EEB3E0AFD0229607C0E0EBDC
:10022600F1E0FA93EA93A8EEB3E0A6D0A0EDB7E02A
:1002360095D12E96ADCFFFCFA898A99AAA9AE3B3E7
:10024600E63F21F49B9BFECFE1E00895EE3E21F4CC
:100256009C9BFECFE4E00895EE3D21F49D9BFECFEE
:10026600E7E00895EE3B21F49E9BFECFEAE0089579
:10027600A89AA998AA9AE3B3E53F21F49B9BFECFDF
:10028600E2E00895ED3E21F49C9BFECFE5E0089563
:10029600ED3D21F49D9BFECFE8E00895ED3B21F472
:1002A6009E9BFECFE0E00895A89AA99AAA98E3B388
:1002B600E33F21F49B9BFECFE3E00895EB3E21F460
:1002C6009C9BFECFE6E00895EB3D21F49D9BFECF7F
:1002D600E9E00895EB3B21F49E9BFECFEBE0089509
:1002E600ABCF1A930A938D01E199FECF1FBB0EBBCC
:1002F600E09AEDB309911991089526D11A2F2C8110
:100306003D81E199FECF3FBB2EBB1DBBE29AE19A30
:1003160039C0FDD0D801EC91E03051F0F9012F5FE2
:100326003F4FFA93EA930F5F1F4FAC91E6DFF2CF90
:100336003A932A93A0E0E1DF25C006D100E010E061
:1003460020E030E02E31E0E03E07ACF4E5D0E754A3
:10035600FE4FDF01ED91FD91DF01DBDF0E5F1F4FE9
:10036600DBD0E554FE4FE0D0D7D0E354FE4FDCD0CF
:100376002F5F3F4FE7CF87C0CAD05CD0D90177D077
:10038600D801ECD0E6D026960895DED055DF1E2F94
:1003960053DF0E2F51DF3E2FA12FA05D55D0A02F8A
:1003A600A05D52D0A32FA05D4FD0A8EEB3E0D6D06B
:1003B600E4E6E19FF001DF01EAE0E09FF001AE0F25
:1003C600BF1FE32FF0E0EA0FFB1F5DC01A931A2F41
:1003D600EBB3EF70AE2FE12FE07FEA2BEBBB8DE0A6
:1003E6008A95F1F7DA9A8DE08A95F1F7DA988DE039
:1003F6008A95F1F774C0AA93A881E8DFE881E295AF
:10040600E883A881E3DF85E88A95F1F721960895C8
:100416001A930A931A2F0A81E12FF0E0E952FE4F50
:10042600E081E00FAE2FE7DF502E412E19810881C3
:1004360023960895A2E07DD0ACE0DDDFA1E079D07F
:10044600E0E04E2E5E2E08951A931A2F1A3011F000
:10045600571438F0E0E0EA934394A42DD9DF1A301C
:10046600F1F15394D89AA12FC6DFD89838C06CD032
:100476009D01D9012F5F3F4FEC911E2FE03019F0FF
:10048600A12FE2DFF6CF65D0249608951A931A2F8E
:10049600EAB3E06FEABBD29AD09AD19ADA98D898A2
:1004A600D998712EE12FE058E093D901E12FE0545D
:1004B600E093DA01A4E1B0E051D03FD03ED03DD088
:1004C600A0E284DF88EC90E00197F1F7A8E293DFE1
:1004D600A4E091DFA5E88FDFA6E08DDFABDF199101
:1004E6000895FA93EA93A8EEB3E046DF4ECFEC8187
:1004F600FD813296EC83FD83AC81BD81F2DEF0E0B6
:100506000895EC81FD813296EC83FD8308951CD01D
:100516008D012C813D8108951A930A93A6E0A29F2E
:10052600F001A39FF00D0895A081E7DE0E5F1F4F37
:10053600089561DFA3E0B0E011C0A0E347DF88ECD7
:1005460090E00197F1F708953A932A931A930A9344
:1005560008953B812A81198108810895109639F002
:10056600A89580ED97E00197F1F71197C9F70895DF
:00000001FF
